{
  "contractName": "JadeContract",
  "abi": [
    {
      "inputs": [],
      "stateMutability": "nonpayable",
      "type": "constructor"
    },
    {
      "anonymous": false,
      "inputs": [
        {
          "indexed": false,
          "internalType": "uint256",
          "name": "jadeId",
          "type": "uint256"
        },
        {
          "indexed": false,
          "internalType": "string",
          "name": "ownerName",
          "type": "string"
        },
        {
          "indexed": false,
          "internalType": "string",
          "name": "transferDate",
          "type": "string"
        },
        {
          "indexed": false,
          "internalType": "string",
          "name": "phone",
          "type": "string"
        },
        {
          "indexed": false,
          "internalType": "string",
          "name": "email",
          "type": "string"
        }
      ],
      "name": "OwnerCreated",
      "type": "event"
    },
    {
      "anonymous": false,
      "inputs": [
        {
          "indexed": false,
          "internalType": "uint256",
          "name": "jadeId",
          "type": "uint256"
        },
        {
          "indexed": false,
          "internalType": "string",
          "name": "id",
          "type": "string"
        },
        {
          "indexed": false,
          "internalType": "string",
          "name": "name",
          "type": "string"
        },
        {
          "indexed": false,
          "internalType": "string",
          "name": "origin",
          "type": "string"
        },
        {
          "indexed": false,
          "internalType": "string",
          "name": "minedDate",
          "type": "string"
        }
      ],
      "name": "JadeCreated",
      "type": "event"
    },
    {
      "anonymous": false,
      "inputs": [
        {
          "indexed": false,
          "internalType": "uint256",
          "name": "id",
          "type": "uint256"
        },
        {
          "indexed": false,
          "internalType": "string",
          "name": "name",
          "type": "string"
        },
        {
          "indexed": false,
          "internalType": "uint256",
          "name": "price",
          "type": "uint256"
        },
        {
          "indexed": false,
          "internalType": "address payable",
          "name": "owner",
          "type": "address"
        },
        {
          "indexed": false,
          "internalType": "enum JadeContract.JadeStatus",
          "name": "status",
          "type": "uint8"
        }
      ],
      "name": "JadePurchased",
      "type": "event"
    },
    {
      "anonymous": false,
      "inputs": [
        {
          "indexed": false,
          "internalType": "uint256",
          "name": "jadeId",
          "type": "uint256"
        },
        {
          "indexed": false,
          "internalType": "string",
          "name": "handlerName",
          "type": "string"
        },
        {
          "indexed": false,
          "internalType": "string",
          "name": "trainerName",
          "type": "string"
        },
        {
          "indexed": false,
          "internalType": "string",
          "name": "transferDate",
          "type": "string"
        },
        {
          "indexed": false,
          "internalType": "string",
          "name": "phone",
          "type": "string"
        },
        {
          "indexed": false,
          "internalType": "string",
          "name": "provenanceDate",
          "type": "string"
        },
        {
          "indexed": false,
          "internalType": "string",
          "name": "progress",
          "type": "string"
        }
      ],
      "name": "ProvenanceRecCreated",
      "type": "event"
    },
    {
      "anonymous": false,
      "inputs": [
        {
          "indexed": false,
          "internalType": "uint256",
          "name": "jadeId",
          "type": "uint256"
        },
        {
          "indexed": false,
          "internalType": "string",
          "name": "certificationId",
          "type": "string"
        },
        {
          "indexed": false,
          "internalType": "string",
          "name": "grade",
          "type": "string"
        },
        {
          "indexed": false,
          "internalType": "string",
          "name": "issueDate",
          "type": "string"
        },
        {
          "indexed": false,
          "internalType": "string",
          "name": "authorityName",
          "type": "string"
        },
        {
          "indexed": false,
          "internalType": "string",
          "name": "phone",
          "type": "string"
        },
        {
          "indexed": false,
          "internalType": "string",
          "name": "email",
          "type": "string"
        }
      ],
      "name": "CertificateRecCreated",
      "type": "event"
    },
    {
      "inputs": [],
      "name": "companyName",
      "outputs": [
        {
          "internalType": "string",
          "name": "",
          "type": "string"
        }
      ],
      "stateMutability": "view",
      "type": "function",
      "constant": true
    },
    {
      "inputs": [
        {
          "internalType": "uint256",
          "name": "",
          "type": "uint256"
        }
      ],
      "name": "jades",
      "outputs": [
        {
          "components": [
            {
              "internalType": "string",
              "name": "id",
              "type": "string"
            },
            {
              "internalType": "string",
              "name": "name",
              "type": "string"
            },
            {
              "internalType": "string",
              "name": "origin",
              "type": "string"
            },
            {
              "internalType": "string",
              "name": "minedDate",
              "type": "string"
            },
            {
              "internalType": "uint256",
              "name": "price",
              "type": "uint256"
            },
            {
              "internalType": "enum JadeContract.JadeStatus",
              "name": "status",
              "type": "uint8"
            }
          ],
          "internalType": "struct JadeContract.JadeInformation",
          "name": "jadeInfo",
          "type": "tuple"
        }
      ],
      "stateMutability": "view",
      "type": "function",
      "constant": true
    },
    {
      "inputs": [],
      "name": "getCompanyName",
      "outputs": [
        {
          "internalType": "string",
          "name": "",
          "type": "string"
        }
      ],
      "stateMutability": "view",
      "type": "function",
      "constant": true
    },
    {
      "inputs": [],
      "name": "getNoOfJades",
      "outputs": [
        {
          "internalType": "uint256",
          "name": "",
          "type": "uint256"
        }
      ],
      "stateMutability": "view",
      "type": "function",
      "constant": true
    },
    {
      "inputs": [
        {
          "internalType": "uint256",
          "name": "jadeId",
          "type": "uint256"
        }
      ],
      "name": "getJadeInfo",
      "outputs": [
        {
          "components": [
            {
              "internalType": "string",
              "name": "id",
              "type": "string"
            },
            {
              "internalType": "string",
              "name": "name",
              "type": "string"
            },
            {
              "internalType": "string",
              "name": "origin",
              "type": "string"
            },
            {
              "internalType": "string",
              "name": "minedDate",
              "type": "string"
            },
            {
              "internalType": "uint256",
              "name": "price",
              "type": "uint256"
            },
            {
              "internalType": "enum JadeContract.JadeStatus",
              "name": "status",
              "type": "uint8"
            }
          ],
          "internalType": "struct JadeContract.JadeInformation",
          "name": "",
          "type": "tuple"
        }
      ],
      "stateMutability": "view",
      "type": "function",
      "constant": true
    },
    {
      "inputs": [
        {
          "internalType": "uint256",
          "name": "jadeId",
          "type": "uint256"
        }
      ],
      "name": "getOwnershipRecords",
      "outputs": [
        {
          "components": [
            {
              "internalType": "address payable",
              "name": "ownerId",
              "type": "address"
            },
            {
              "internalType": "string",
              "name": "ownerName",
              "type": "string"
            },
            {
              "internalType": "string",
              "name": "transferDate",
              "type": "string"
            },
            {
              "internalType": "string",
              "name": "phone",
              "type": "string"
            },
            {
              "internalType": "string",
              "name": "email",
              "type": "string"
            }
          ],
          "internalType": "struct JadeContract.OwnershipRecord[]",
          "name": "",
          "type": "tuple[]"
        }
      ],
      "stateMutability": "view",
      "type": "function",
      "constant": true
    },
    {
      "inputs": [
        {
          "internalType": "uint256",
          "name": "jadeId",
          "type": "uint256"
        }
      ],
      "name": "getCertificateRecords",
      "outputs": [
        {
          "components": [
            {
              "internalType": "string",
              "name": "certificationId",
              "type": "string"
            },
            {
              "internalType": "string",
              "name": "grade",
              "type": "string"
            },
            {
              "internalType": "string",
              "name": "issueDate",
              "type": "string"
            },
            {
              "internalType": "string",
              "name": "authorityName",
              "type": "string"
            },
            {
              "internalType": "string",
              "name": "phone",
              "type": "string"
            },
            {
              "internalType": "string",
              "name": "email",
              "type": "string"
            }
          ],
          "internalType": "struct JadeContract.CertificateRecord[]",
          "name": "",
          "type": "tuple[]"
        }
      ],
      "stateMutability": "view",
      "type": "function",
      "constant": true
    },
    {
      "inputs": [
        {
          "internalType": "uint256",
          "name": "jadeId",
          "type": "uint256"
        }
      ],
      "name": "getProvenanceRecords",
      "outputs": [
        {
          "components": [
            {
              "internalType": "string",
              "name": "handlerName",
              "type": "string"
            },
            {
              "internalType": "string",
              "name": "handlerAddress",
              "type": "string"
            },
            {
              "internalType": "string",
              "name": "transferDate",
              "type": "string"
            },
            {
              "internalType": "string",
              "name": "phone",
              "type": "string"
            },
            {
              "internalType": "string",
              "name": "provenanceDate",
              "type": "string"
            },
            {
              "internalType": "string",
              "name": "progress",
              "type": "string"
            }
          ],
          "internalType": "struct JadeContract.ProvenanceRecord[]",
          "name": "",
          "type": "tuple[]"
        }
      ],
      "stateMutability": "view",
      "type": "function",
      "constant": true
    },
    {
      "inputs": [],
      "name": "registerJade",
      "outputs": [
        {
          "internalType": "uint256",
          "name": "",
          "type": "uint256"
        }
      ],
      "stateMutability": "nonpayable",
      "type": "function"
    },
    {
      "inputs": [
        {
          "internalType": "uint256",
          "name": "jadeId",
          "type": "uint256"
        },
        {
          "internalType": "string",
          "name": "_id",
          "type": "string"
        },
        {
          "internalType": "string",
          "name": "_name",
          "type": "string"
        },
        {
          "internalType": "string",
          "name": "_origin",
          "type": "string"
        },
        {
          "internalType": "string",
          "name": "_minedDate",
          "type": "string"
        },
        {
          "internalType": "uint256",
          "name": "price",
          "type": "uint256"
        }
      ],
      "name": "addJadeInfo",
      "outputs": [],
      "stateMutability": "nonpayable",
      "type": "function"
    },
    {
      "inputs": [
        {
          "internalType": "uint256",
          "name": "jadeId",
          "type": "uint256"
        },
        {
          "internalType": "string",
          "name": "_ownerName",
          "type": "string"
        },
        {
          "internalType": "string",
          "name": "_transferDate",
          "type": "string"
        },
        {
          "internalType": "string",
          "name": "_phone",
          "type": "string"
        },
        {
          "internalType": "string",
          "name": "_email",
          "type": "string"
        }
      ],
      "name": "addOwnerShipRecord",
      "outputs": [],
      "stateMutability": "nonpayable",
      "type": "function"
    },
    {
      "inputs": [
        {
          "internalType": "uint256",
          "name": "jadeId",
          "type": "uint256"
        },
        {
          "internalType": "string",
          "name": "_certificationId",
          "type": "string"
        },
        {
          "internalType": "string",
          "name": "_grade",
          "type": "string"
        },
        {
          "internalType": "string",
          "name": "_issueDate",
          "type": "string"
        },
        {
          "internalType": "string",
          "name": "_authorityName",
          "type": "string"
        },
        {
          "internalType": "string",
          "name": "_phone",
          "type": "string"
        },
        {
          "internalType": "string",
          "name": "_email",
          "type": "string"
        }
      ],
      "name": "addCertificateRecord",
      "outputs": [],
      "stateMutability": "nonpayable",
      "type": "function"
    },
    {
      "inputs": [
        {
          "internalType": "uint256",
          "name": "jadeId",
          "type": "uint256"
        },
        {
          "internalType": "string",
          "name": "_handlerName",
          "type": "string"
        },
        {
          "internalType": "string",
          "name": "_trainerName",
          "type": "string"
        },
        {
          "internalType": "string",
          "name": "_transferDate",
          "type": "string"
        },
        {
          "internalType": "string",
          "name": "_phone",
          "type": "string"
        },
        {
          "internalType": "string",
          "name": "_provenanceDate",
          "type": "string"
        },
        {
          "internalType": "string",
          "name": "_progress",
          "type": "string"
        }
      ],
      "name": "addProvenanceRecord",
      "outputs": [],
      "stateMutability": "nonpayable",
      "type": "function"
    },
    {
      "inputs": [
        {
          "internalType": "uint256",
          "name": "_id",
          "type": "uint256"
        }
      ],
      "name": "purchaseJade",
      "outputs": [],
      "stateMutability": "payable",
      "type": "function",
      "payable": true
    }
  ],
  "bytecode": "0x60806040523480156200001157600080fd5b5060006001819055506040518060400160405280600f81526020017f506574652773205065742053686f70000000000000000000000000000000000081525060009081620000609190620002e1565b50620003c8565b600081519050919050565b7f4e487b7100000000000000000000000000000000000000000000000000000000600052604160045260246000fd5b7f4e487b7100000000000000000000000000000000000000000000000000000000600052602260045260246000fd5b60006002820490506001821680620000e957607f821691505b602082108103620000ff57620000fe620000a1565b5b50919050565b60008190508160005260206000209050919050565b60006020601f8301049050919050565b600082821b905092915050565b600060088302620001697fffffffffffffffffffffffffffffffffffffffffffffffffffffffffffffffff826200012a565b6200017586836200012a565b95508019841693508086168417925050509392505050565b6000819050919050565b6000819050919050565b6000620001c2620001bc620001b6846200018d565b62000197565b6200018d565b9050919050565b6000819050919050565b620001de83620001a1565b620001f6620001ed82620001c9565b84845462000137565b825550505050565b600090565b6200020d620001fe565b6200021a818484620001d3565b505050565b5b8181101562000242576200023660008262000203565b60018101905062000220565b5050565b601f82111562000291576200025b8162000105565b62000266846200011a565b8101602085101562000276578190505b6200028e62000285856200011a565b8301826200021f565b50505b505050565b600082821c905092915050565b6000620002b66000198460080262000296565b1980831691505092915050565b6000620002d18383620002a3565b9150826002028217905092915050565b620002ec8262000067565b67ffffffffffffffff81111562000308576200030762000072565b5b620003148254620000d0565b6200032182828562000246565b600060209050601f83116001811462000359576000841562000344578287015190505b620003508582620002c3565b865550620003c0565b601f198416620003698662000105565b60005b8281101562000393578489015182556001820191506020850194506020810190506200036c565b86831015620003b35784890151620003af601f891682620002a3565b8355505b6001600288020188555050505b505050505050565b613c5580620003d86000396000f3fe6080604052600436106100dd5760003560e01c8063718bb4a41161007f578063c051b45f11610059578063c051b45f146102be578063ca7f9096146102fb578063cfb869bf14610317578063f5ec2eed14610354576100dd565b8063718bb4a41461023f5780637639b8301461026a578063a882c5d914610293576100dd565b806343cfbd65116100bb57806343cfbd651461018557806369c3f316146101b05780637070c173146101ed578063709efc5114610216576100dd565b806325a7b45e146100e2578063312222bd1461011f578063397877611461015c575b600080fd5b3480156100ee57600080fd5b5061010960048036038101906101049190612aab565b61037f565b6040516101169190612cf6565b60405180910390f35b34801561012b57600080fd5b5061014660048036038101906101419190612aab565b610692565b6040516101539190612e86565b60405180910390f35b34801561016857600080fd5b50610183600480360381019061017e9190612fdd565b610a73565b005b34801561019157600080fd5b5061019a610bb1565b6040516101a79190613171565b60405180910390f35b3480156101bc57600080fd5b506101d760048036038101906101d29190612aab565b610c43565b6040516101e491906132b7565b60405180910390f35b3480156101f957600080fd5b50610214600480360381019061020f91906132d9565b610f00565b005b34801561022257600080fd5b5061023d600480360381019061023891906133c4565b611063565b005b34801561024b57600080fd5b50610254611194565b60405161026191906134d0565b60405180910390f35b34801561027657600080fd5b50610291600480360381019061028c9190612fdd565b6111b6565b005b34801561029f57600080fd5b506102a86112f4565b6040516102b591906134d0565b60405180910390f35b3480156102ca57600080fd5b506102e560048036038101906102e09190612aab565b6112fe565b6040516102f29190613659565b60405180910390f35b61031560048036038101906103109190612aab565b6116df565b005b34801561032357600080fd5b5061033e60048036038101906103399190612aab565b6126d6565b60405161034b91906132b7565b60405180910390f35b34801561036057600080fd5b5061036961298b565b6040516103769190613171565b60405180910390f35b606060026000838152602001908152602001600020600601805480602002602001604051908101604052809291908181526020016000905b8282101561068757838290600052602060002090600502016040518060a00160405290816000820160009054906101000a900473ffffffffffffffffffffffffffffffffffffffff1673ffffffffffffffffffffffffffffffffffffffff1673ffffffffffffffffffffffffffffffffffffffff168152602001600182018054610440906136aa565b80601f016020809104026020016040519081016040528092919081815260200182805461046c906136aa565b80156104b95780601f1061048e576101008083540402835291602001916104b9565b820191906000526020600020905b81548152906001019060200180831161049c57829003601f168201915b505050505081526020016002820180546104d2906136aa565b80601f01602080910402602001604051908101604052809291908181526020018280546104fe906136aa565b801561054b5780601f106105205761010080835404028352916020019161054b565b820191906000526020600020905b81548152906001019060200180831161052e57829003601f168201915b50505050508152602001600382018054610564906136aa565b80601f0160208091040260200160405190810160405280929190818152602001828054610590906136aa565b80156105dd5780601f106105b2576101008083540402835291602001916105dd565b820191906000526020600020905b8154815290600101906020018083116105c057829003601f168201915b505050505081526020016004820180546105f6906136aa565b80601f0160208091040260200160405190810160405280929190818152602001828054610622906136aa565b801561066f5780601f106106445761010080835404028352916020019161066f565b820191906000526020600020905b81548152906001019060200180831161065257829003601f168201915b505050505081525050815260200190600101906103b7565b505050509050919050565b606060026000838152602001908152602001600020600801805480602002602001604051908101604052809291908181526020016000905b82821015610a6857838290600052602060002090600602016040518060c00160405290816000820180546106fd906136aa565b80601f0160208091040260200160405190810160405280929190818152602001828054610729906136aa565b80156107765780601f1061074b57610100808354040283529160200191610776565b820191906000526020600020905b81548152906001019060200180831161075957829003601f168201915b5050505050815260200160018201805461078f906136aa565b80601f01602080910402602001604051908101604052809291908181526020018280546107bb906136aa565b80156108085780601f106107dd57610100808354040283529160200191610808565b820191906000526020600020905b8154815290600101906020018083116107eb57829003601f168201915b50505050508152602001600282018054610821906136aa565b80601f016020809104026020016040519081016040528092919081815260200182805461084d906136aa565b801561089a5780601f1061086f5761010080835404028352916020019161089a565b820191906000526020600020905b81548152906001019060200180831161087d57829003601f168201915b505050505081526020016003820180546108b3906136aa565b80601f01602080910402602001604051908101604052809291908181526020018280546108df906136aa565b801561092c5780601f106109015761010080835404028352916020019161092c565b820191906000526020600020905b81548152906001019060200180831161090f57829003601f168201915b50505050508152602001600482018054610945906136aa565b80601f0160208091040260200160405190810160405280929190818152602001828054610971906136aa565b80156109be5780601f10610993576101008083540402835291602001916109be565b820191906000526020600020905b8154815290600101906020018083116109a157829003601f168201915b505050505081526020016005820180546109d7906136aa565b80601f0160208091040260200160405190810160405280929190818152602001828054610a03906136aa565b8015610a505780601f10610a2557610100808354040283529160200191610a50565b820191906000526020600020905b815481529060010190602001808311610a3357829003601f168201915b505050505081525050815260200190600101906106ca565b505050509050919050565b600260008881526020019081526020016000206007016040518060c001604052808881526020018781526020018681526020018581526020018481526020018381525090806001815401808255809150506001900390600052602060002090600602016000909190919091506000820151816000019081610af49190613887565b506020820151816001019081610b0a9190613887565b506040820151816002019081610b209190613887565b506060820151816003019081610b369190613887565b506080820151816004019081610b4c9190613887565b5060a0820151816005019081610b629190613887565b5050507f27115cf54a94779e1202bfecf2ef5752ced12949ebe1a0a74604a3d84c96c01387878787878787604051610ba09796959493929190613959565b60405180910390a150505050505050565b606060008054610bc0906136aa565b80601f0160208091040260200160405190810160405280929190818152602001828054610bec906136aa565b8015610c395780601f10610c0e57610100808354040283529160200191610c39565b820191906000526020600020905b815481529060010190602001808311610c1c57829003601f168201915b5050505050905090565b610c4b612a19565b600260008381526020019081526020016000206000016040518060c0016040529081600082018054610c7c906136aa565b80601f0160208091040260200160405190810160405280929190818152602001828054610ca8906136aa565b8015610cf55780601f10610cca57610100808354040283529160200191610cf5565b820191906000526020600020905b815481529060010190602001808311610cd857829003601f168201915b50505050508152602001600182018054610d0e906136aa565b80601f0160208091040260200160405190810160405280929190818152602001828054610d3a906136aa565b8015610d875780601f10610d5c57610100808354040283529160200191610d87565b820191906000526020600020905b815481529060010190602001808311610d6a57829003601f168201915b50505050508152602001600282018054610da0906136aa565b80601f0160208091040260200160405190810160405280929190818152602001828054610dcc906136aa565b8015610e195780601f10610dee57610100808354040283529160200191610e19565b820191906000526020600020905b815481529060010190602001808311610dfc57829003601f168201915b50505050508152602001600382018054610e32906136aa565b80601f0160208091040260200160405190810160405280929190818152602001828054610e5e906136aa565b8015610eab5780601f10610e8057610100808354040283529160200191610eab565b820191906000526020600020905b815481529060010190602001808311610e8e57829003601f168201915b50505050508152602001600482015481526020016005820160009054906101000a900460ff166001811115610ee357610ee26131a2565b5b6001811115610ef557610ef46131a2565b5b815250509050919050565b600260008681526020019081526020016000206006016040518060a001604052803373ffffffffffffffffffffffffffffffffffffffff16815260200186815260200185815260200184815260200183815250908060018154018082558091505060019003906000526020600020906005020160009091909190915060008201518160000160006101000a81548173ffffffffffffffffffffffffffffffffffffffff021916908373ffffffffffffffffffffffffffffffffffffffff1602179055506020820151816001019081610fd89190613887565b506040820151816002019081610fee9190613887565b5060608201518160030190816110049190613887565b50608082015181600401908161101a9190613887565b5050507fc74eb68984aac17d3e74cd59cd8ebb381ad7a893e6894a5cf266e5d4b4d66f0c85858585856040516110549594939291906139f2565b60405180910390a15050505050565b6040518060c0016040528086815260200185815260200184815260200183815260200182815260200160018081111561109f5761109e6131a2565b5b8152506002600088815260200190815260200160002060000160008201518160000190816110cd9190613887565b5060208201518160010190816110e39190613887565b5060408201518160020190816110f99190613887565b50606082015181600301908161110f9190613887565b506080820151816004015560a08201518160050160006101000a81548160ff02191690836001811115611145576111446131a2565b5b02179055509050507f9d748ac4431e67dd00094d0aaf95fdedbdbc7e34463763447b24ccb462eed62986868686866040516111849594939291906139f2565b60405180910390a1505050505050565b6000600160008154809291906111a990613a90565b9190505550600154905090565b600260008881526020019081526020016000206008016040518060c0016040528088815260200187815260200186815260200185815260200184815260200183815250908060018154018082558091505060019003906000526020600020906006020160009091909190915060008201518160000190816112379190613887565b50602082015181600101908161124d9190613887565b5060408201518160020190816112639190613887565b5060608201518160030190816112799190613887565b50608082015181600401908161128f9190613887565b5060a08201518160050190816112a59190613887565b5050507f54d5f4b159f4693ba185db74e1916e71c9b1f493647471173999b1f37e2df06b878787878787876040516112e39796959493929190613959565b60405180910390a150505050505050565b6000600154905090565b606060026000838152602001908152602001600020600701805480602002602001604051908101604052809291908181526020016000905b828210156116d457838290600052602060002090600602016040518060c0016040529081600082018054611369906136aa565b80601f0160208091040260200160405190810160405280929190818152602001828054611395906136aa565b80156113e25780601f106113b7576101008083540402835291602001916113e2565b820191906000526020600020905b8154815290600101906020018083116113c557829003601f168201915b505050505081526020016001820180546113fb906136aa565b80601f0160208091040260200160405190810160405280929190818152602001828054611427906136aa565b80156114745780601f1061144957610100808354040283529160200191611474565b820191906000526020600020905b81548152906001019060200180831161145757829003601f168201915b5050505050815260200160028201805461148d906136aa565b80601f01602080910402602001604051908101604052809291908181526020018280546114b9906136aa565b80156115065780601f106114db57610100808354040283529160200191611506565b820191906000526020600020905b8154815290600101906020018083116114e957829003601f168201915b5050505050815260200160038201805461151f906136aa565b80601f016020809104026020016040519081016040528092919081815260200182805461154b906136aa565b80156115985780601f1061156d57610100808354040283529160200191611598565b820191906000526020600020905b81548152906001019060200180831161157b57829003601f168201915b505050505081526020016004820180546115b1906136aa565b80601f01602080910402602001604051908101604052809291908181526020018280546115dd906136aa565b801561162a5780601f106115ff5761010080835404028352916020019161162a565b820191906000526020600020905b81548152906001019060200180831161160d57829003601f168201915b50505050508152602001600582018054611643906136aa565b80601f016020809104026020016040519081016040528092919081815260200182805461166f906136aa565b80156116bc5780601f10611691576101008083540402835291602001916116bc565b820191906000526020600020905b81548152906001019060200180831161169f57829003601f168201915b50505050508152505081526020019060010190611336565b505050509050919050565b600060026000838152602001908152602001600020604051806080016040529081600082016040518060c001604052908160008201805461171f906136aa565b80601f016020809104026020016040519081016040528092919081815260200182805461174b906136aa565b80156117985780601f1061176d57610100808354040283529160200191611798565b820191906000526020600020905b81548152906001019060200180831161177b57829003601f168201915b505050505081526020016001820180546117b1906136aa565b80601f01602080910402602001604051908101604052809291908181526020018280546117dd906136aa565b801561182a5780601f106117ff5761010080835404028352916020019161182a565b820191906000526020600020905b81548152906001019060200180831161180d57829003601f168201915b50505050508152602001600282018054611843906136aa565b80601f016020809104026020016040519081016040528092919081815260200182805461186f906136aa565b80156118bc5780601f10611891576101008083540402835291602001916118bc565b820191906000526020600020905b81548152906001019060200180831161189f57829003601f168201915b505050505081526020016003820180546118d5906136aa565b80601f0160208091040260200160405190810160405280929190818152602001828054611901906136aa565b801561194e5780601f106119235761010080835404028352916020019161194e565b820191906000526020600020905b81548152906001019060200180831161193157829003601f168201915b50505050508152602001600482015481526020016005820160009054906101000a900460ff166001811115611986576119856131a2565b5b6001811115611998576119976131a2565b5b81525050815260200160068201805480602002602001604051908101604052809291908181526020016000905b82821015611c9557838290600052602060002090600502016040518060a00160405290816000820160009054906101000a900473ffffffffffffffffffffffffffffffffffffffff1673ffffffffffffffffffffffffffffffffffffffff1673ffffffffffffffffffffffffffffffffffffffff168152602001600182018054611a4e906136aa565b80601f0160208091040260200160405190810160405280929190818152602001828054611a7a906136aa565b8015611ac75780601f10611a9c57610100808354040283529160200191611ac7565b820191906000526020600020905b815481529060010190602001808311611aaa57829003601f168201915b50505050508152602001600282018054611ae0906136aa565b80601f0160208091040260200160405190810160405280929190818152602001828054611b0c906136aa565b8015611b595780601f10611b2e57610100808354040283529160200191611b59565b820191906000526020600020905b815481529060010190602001808311611b3c57829003601f168201915b50505050508152602001600382018054611b72906136aa565b80601f0160208091040260200160405190810160405280929190818152602001828054611b9e906136aa565b8015611beb5780601f10611bc057610100808354040283529160200191611beb565b820191906000526020600020905b815481529060010190602001808311611bce57829003601f168201915b50505050508152602001600482018054611c04906136aa565b80601f0160208091040260200160405190810160405280929190818152602001828054611c30906136aa565b8015611c7d5780601f10611c5257610100808354040283529160200191611c7d565b820191906000526020600020905b815481529060010190602001808311611c6057829003601f168201915b505050505081525050815260200190600101906119c5565b50505050815260200160078201805480602002602001604051908101604052809291908181526020016000905b8282101561206057838290600052602060002090600602016040518060c0016040529081600082018054611cf5906136aa565b80601f0160208091040260200160405190810160405280929190818152602001828054611d21906136aa565b8015611d6e5780601f10611d4357610100808354040283529160200191611d6e565b820191906000526020600020905b815481529060010190602001808311611d5157829003601f168201915b50505050508152602001600182018054611d87906136aa565b80601f0160208091040260200160405190810160405280929190818152602001828054611db3906136aa565b8015611e005780601f10611dd557610100808354040283529160200191611e00565b820191906000526020600020905b815481529060010190602001808311611de357829003601f168201915b50505050508152602001600282018054611e19906136aa565b80601f0160208091040260200160405190810160405280929190818152602001828054611e45906136aa565b8015611e925780601f10611e6757610100808354040283529160200191611e92565b820191906000526020600020905b815481529060010190602001808311611e7557829003601f168201915b50505050508152602001600382018054611eab906136aa565b80601f0160208091040260200160405190810160405280929190818152602001828054611ed7906136aa565b8015611f245780601f10611ef957610100808354040283529160200191611f24565b820191906000526020600020905b815481529060010190602001808311611f0757829003601f168201915b50505050508152602001600482018054611f3d906136aa565b80601f0160208091040260200160405190810160405280929190818152602001828054611f69906136aa565b8015611fb65780601f10611f8b57610100808354040283529160200191611fb6565b820191906000526020600020905b815481529060010190602001808311611f9957829003601f168201915b50505050508152602001600582018054611fcf906136aa565b80601f0160208091040260200160405190810160405280929190818152602001828054611ffb906136aa565b80156120485780601f1061201d57610100808354040283529160200191612048565b820191906000526020600020905b81548152906001019060200180831161202b57829003601f168201915b50505050508152505081526020019060010190611cc2565b50505050815260200160088201805480602002602001604051908101604052809291908181526020016000905b8282101561242b57838290600052602060002090600602016040518060c00160405290816000820180546120c0906136aa565b80601f01602080910402602001604051908101604052809291908181526020018280546120ec906136aa565b80156121395780601f1061210e57610100808354040283529160200191612139565b820191906000526020600020905b81548152906001019060200180831161211c57829003601f168201915b50505050508152602001600182018054612152906136aa565b80601f016020809104026020016040519081016040528092919081815260200182805461217e906136aa565b80156121cb5780601f106121a0576101008083540402835291602001916121cb565b820191906000526020600020905b8154815290600101906020018083116121ae57829003601f168201915b505050505081526020016002820180546121e4906136aa565b80601f0160208091040260200160405190810160405280929190818152602001828054612210906136aa565b801561225d5780601f106122325761010080835404028352916020019161225d565b820191906000526020600020905b81548152906001019060200180831161224057829003601f168201915b50505050508152602001600382018054612276906136aa565b80601f01602080910402602001604051908101604052809291908181526020018280546122a2906136aa565b80156122ef5780601f106122c4576101008083540402835291602001916122ef565b820191906000526020600020905b8154815290600101906020018083116122d257829003601f168201915b50505050508152602001600482018054612308906136aa565b80601f0160208091040260200160405190810160405280929190818152602001828054612334906136aa565b80156123815780601f1061235657610100808354040283529160200191612381565b820191906000526020600020905b81548152906001019060200180831161236457829003601f168201915b5050505050815260200160058201805461239a906136aa565b80601f01602080910402602001604051908101604052809291908181526020018280546123c6906136aa565b80156124135780601f106123e857610100808354040283529160200191612413565b820191906000526020600020905b8154815290600101906020018083116123f657829003601f168201915b5050505050815250508152602001906001019061208d565b5050505081525050905060008160200151519050600082602001516001836124539190613ad8565b8151811061246457612463613b0c565b5b6020026020010151600001519050600060015411801561248e575060008360000151600001515114155b6124cd576040517f08c379a00000000000000000000000000000000000000000000000000000000081526004016124c490613b87565b60405180910390fd5b8260000151608001513410156124e257600080fd5b6001808111156124f5576124f46131a2565b5b836000015160a0015160018111156125105761250f6131a2565b5b1461251a57600080fd5b3373ffffffffffffffffffffffffffffffffffffffff168173ffffffffffffffffffffffffffffffffffffffff160361255257600080fd5b6000836000015160a00190600181111561256f5761256e6131a2565b5b90816001811115612583576125826131a2565b5b8152505082600001516002600086815260200190815260200160002060000160008201518160000190816125b79190613887565b5060208201518160010190816125cd9190613887565b5060408201518160020190816125e39190613887565b5060608201518160030190816125f99190613887565b506080820151816004015560a08201518160050160006101000a81548160ff0219169083600181111561262f5761262e6131a2565b5b02179055509050508073ffffffffffffffffffffffffffffffffffffffff166108fc349081150290604051600060405180830381858888f1935050505015801561267d573d6000803e3d6000fd5b507f9d04bde50a3c30051afb33010f89932d7b8f3b7e0b09c2b30bbee2f223f7b6a26001548460000151602001518560000151608001513360006040516126c8959493929190613bc5565b60405180910390a150505050565b6002602052806000526040600020600091509050806000016040518060c0016040529081600082018054612709906136aa565b80601f0160208091040260200160405190810160405280929190818152602001828054612735906136aa565b80156127825780601f1061275757610100808354040283529160200191612782565b820191906000526020600020905b81548152906001019060200180831161276557829003601f168201915b5050505050815260200160018201805461279b906136aa565b80601f01602080910402602001604051908101604052809291908181526020018280546127c7906136aa565b80156128145780601f106127e957610100808354040283529160200191612814565b820191906000526020600020905b8154815290600101906020018083116127f757829003601f168201915b5050505050815260200160028201805461282d906136aa565b80601f0160208091040260200160405190810160405280929190818152602001828054612859906136aa565b80156128a65780601f1061287b576101008083540402835291602001916128a6565b820191906000526020600020905b81548152906001019060200180831161288957829003601f168201915b505050505081526020016003820180546128bf906136aa565b80601f01602080910402602001604051908101604052809291908181526020018280546128eb906136aa565b80156129385780601f1061290d57610100808354040283529160200191612938565b820191906000526020600020905b81548152906001019060200180831161291b57829003601f168201915b50505050508152602001600482015481526020016005820160009054906101000a900460ff1660018111156129705761296f6131a2565b5b6001811115612982576129816131a2565b5b81525050905081565b60008054612998906136aa565b80601f01602080910402602001604051908101604052809291908181526020018280546129c4906136aa565b8015612a115780601f106129e657610100808354040283529160200191612a11565b820191906000526020600020905b8154815290600101906020018083116129f457829003601f168201915b505050505081565b6040518060c00160405280606081526020016060815260200160608152602001606081526020016000815260200160006001811115612a5b57612a5a6131a2565b5b81525090565b6000604051905090565b600080fd5b600080fd5b6000819050919050565b612a8881612a75565b8114612a9357600080fd5b50565b600081359050612aa581612a7f565b92915050565b600060208284031215612ac157612ac0612a6b565b5b6000612acf84828501612a96565b91505092915050565b600081519050919050565b600082825260208201905092915050565b6000819050602082019050919050565b600073ffffffffffffffffffffffffffffffffffffffff82169050919050565b6000612b2f82612b04565b9050919050565b612b3f81612b24565b82525050565b600081519050919050565b600082825260208201905092915050565b60005b83811015612b7f578082015181840152602081019050612b64565b60008484015250505050565b6000601f19601f8301169050919050565b6000612ba782612b45565b612bb18185612b50565b9350612bc1818560208601612b61565b612bca81612b8b565b840191505092915050565b600060a083016000830151612bed6000860182612b36565b5060208301518482036020860152612c058282612b9c565b91505060408301518482036040860152612c1f8282612b9c565b91505060608301518482036060860152612c398282612b9c565b91505060808301518482036080860152612c538282612b9c565b9150508091505092915050565b6000612c6c8383612bd5565b905092915050565b6000602082019050919050565b6000612c8c82612ad8565b612c968185612ae3565b935083602082028501612ca885612af4565b8060005b85811015612ce45784840389528151612cc58582612c60565b9450612cd083612c74565b925060208a01995050600181019050612cac565b50829750879550505050505092915050565b60006020820190508181036000830152612d108184612c81565b905092915050565b600081519050919050565b600082825260208201905092915050565b6000819050602082019050919050565b600060c0830160008301518482036000860152612d618282612b9c565b91505060208301518482036020860152612d7b8282612b9c565b91505060408301518482036040860152612d958282612b9c565b91505060608301518482036060860152612daf8282612b9c565b91505060808301518482036080860152612dc98282612b9c565b91505060a083015184820360a0860152612de38282612b9c565b9150508091505092915050565b6000612dfc8383612d44565b905092915050565b6000602082019050919050565b6000612e1c82612d18565b612e268185612d23565b935083602082028501612e3885612d34565b8060005b85811015612e745784840389528151612e558582612df0565b9450612e6083612e04565b925060208a01995050600181019050612e3c565b50829750879550505050505092915050565b60006020820190508181036000830152612ea08184612e11565b905092915050565b600080fd5b600080fd5b7f4e487b7100000000000000000000000000000000000000000000000000000000600052604160045260246000fd5b612eea82612b8b565b810181811067ffffffffffffffff82111715612f0957612f08612eb2565b5b80604052505050565b6000612f1c612a61565b9050612f288282612ee1565b919050565b600067ffffffffffffffff821115612f4857612f47612eb2565b5b612f5182612b8b565b9050602081019050919050565b82818337600083830152505050565b6000612f80612f7b84612f2d565b612f12565b905082815260208101848484011115612f9c57612f9b612ead565b5b612fa7848285612f5e565b509392505050565b600082601f830112612fc457612fc3612ea8565b5b8135612fd4848260208601612f6d565b91505092915050565b600080600080600080600060e0888a031215612ffc57612ffb612a6b565b5b600061300a8a828b01612a96565b975050602088013567ffffffffffffffff81111561302b5761302a612a70565b5b6130378a828b01612faf565b965050604088013567ffffffffffffffff81111561305857613057612a70565b5b6130648a828b01612faf565b955050606088013567ffffffffffffffff81111561308557613084612a70565b5b6130918a828b01612faf565b945050608088013567ffffffffffffffff8111156130b2576130b1612a70565b5b6130be8a828b01612faf565b93505060a088013567ffffffffffffffff8111156130df576130de612a70565b5b6130eb8a828b01612faf565b92505060c088013567ffffffffffffffff81111561310c5761310b612a70565b5b6131188a828b01612faf565b91505092959891949750929550565b600082825260208201905092915050565b600061314382612b45565b61314d8185613127565b935061315d818560208601612b61565b61316681612b8b565b840191505092915050565b6000602082019050818103600083015261318b8184613138565b905092915050565b61319c81612a75565b82525050565b7f4e487b7100000000000000000000000000000000000000000000000000000000600052602160045260246000fd5b600281106131e2576131e16131a2565b5b50565b60008190506131f3826131d1565b919050565b6000613203826131e5565b9050919050565b613213816131f8565b82525050565b600060c08301600083015184820360008601526132368282612b9c565b915050602083015184820360208601526132508282612b9c565b9150506040830151848203604086015261326a8282612b9c565b915050606083015184820360608601526132848282612b9c565b91505060808301516132996080860182613193565b5060a08301516132ac60a086018261320a565b508091505092915050565b600060208201905081810360008301526132d18184613219565b905092915050565b600080600080600060a086880312156132f5576132f4612a6b565b5b600061330388828901612a96565b955050602086013567ffffffffffffffff81111561332457613323612a70565b5b61333088828901612faf565b945050604086013567ffffffffffffffff81111561335157613350612a70565b5b61335d88828901612faf565b935050606086013567ffffffffffffffff81111561337e5761337d612a70565b5b61338a88828901612faf565b925050608086013567ffffffffffffffff8111156133ab576133aa612a70565b5b6133b788828901612faf565b9150509295509295909350565b60008060008060008060c087890312156133e1576133e0612a6b565b5b60006133ef89828a01612a96565b965050602087013567ffffffffffffffff8111156134105761340f612a70565b5b61341c89828a01612faf565b955050604087013567ffffffffffffffff81111561343d5761343c612a70565b5b61344989828a01612faf565b945050606087013567ffffffffffffffff81111561346a57613469612a70565b5b61347689828a01612faf565b935050608087013567ffffffffffffffff81111561349757613496612a70565b5b6134a389828a01612faf565b92505060a06134b489828a01612a96565b9150509295509295509295565b6134ca81612a75565b82525050565b60006020820190506134e560008301846134c1565b92915050565b600081519050919050565b600082825260208201905092915050565b6000819050602082019050919050565b600060c08301600083015184820360008601526135348282612b9c565b9150506020830151848203602086015261354e8282612b9c565b915050604083015184820360408601526135688282612b9c565b915050606083015184820360608601526135828282612b9c565b9150506080830151848203608086015261359c8282612b9c565b91505060a083015184820360a08601526135b68282612b9c565b9150508091505092915050565b60006135cf8383613517565b905092915050565b6000602082019050919050565b60006135ef826134eb565b6135f981856134f6565b93508360208202850161360b85613507565b8060005b85811015613647578484038952815161362885826135c3565b9450613633836135d7565b925060208a0199505060018101905061360f565b50829750879550505050505092915050565b6000602082019050818103600083015261367381846135e4565b905092915050565b7f4e487b7100000000000000000000000000000000000000000000000000000000600052602260045260246000fd5b600060028204905060018216806136c257607f821691505b6020821081036136d5576136d461367b565b5b50919050565b60008190508160005260206000209050919050565b60006020601f8301049050919050565b600082821b905092915050565b60006008830261373d7fffffffffffffffffffffffffffffffffffffffffffffffffffffffffffffffff82613700565b6137478683613700565b95508019841693508086168417925050509392505050565b6000819050919050565b600061378461377f61377a84612a75565b61375f565b612a75565b9050919050565b6000819050919050565b61379e83613769565b6137b26137aa8261378b565b84845461370d565b825550505050565b600090565b6137c76137ba565b6137d2818484613795565b505050565b5b818110156137f6576137eb6000826137bf565b6001810190506137d8565b5050565b601f82111561383b5761380c816136db565b613815846136f0565b81016020851015613824578190505b613838613830856136f0565b8301826137d7565b50505b505050565b600082821c905092915050565b600061385e60001984600802613840565b1980831691505092915050565b6000613877838361384d565b9150826002028217905092915050565b61389082612b45565b67ffffffffffffffff8111156138a9576138a8612eb2565b5b6138b382546136aa565b6138be8282856137fa565b600060209050601f8311600181146138f157600084156138df578287015190505b6138e9858261386b565b865550613951565b601f1984166138ff866136db565b60005b8281101561392757848901518255600182019150602085019450602081019050613902565b868310156139445784890151613940601f89168261384d565b8355505b6001600288020188555050505b505050505050565b600060e08201905061396e600083018a6134c1565b81810360208301526139808189613138565b905081810360408301526139948188613138565b905081810360608301526139a88187613138565b905081810360808301526139bc8186613138565b905081810360a08301526139d08185613138565b905081810360c08301526139e48184613138565b905098975050505050505050565b600060a082019050613a0760008301886134c1565b8181036020830152613a198187613138565b90508181036040830152613a2d8186613138565b90508181036060830152613a418185613138565b90508181036080830152613a558184613138565b90509695505050505050565b7f4e487b7100000000000000000000000000000000000000000000000000000000600052601160045260246000fd5b6000613a9b82612a75565b91507fffffffffffffffffffffffffffffffffffffffffffffffffffffffffffffffff8203613acd57613acc613a61565b5b600182019050919050565b6000613ae382612a75565b9150613aee83612a75565b9250828203905081811115613b0657613b05613a61565b5b92915050565b7f4e487b7100000000000000000000000000000000000000000000000000000000600052603260045260246000fd5b7f5065742049642063616e6e6f7420626520656d70747900000000000000000000600082015250565b6000613b71601683613127565b9150613b7c82613b3b565b602082019050919050565b60006020820190508181036000830152613ba081613b64565b9050919050565b613bb081612b24565b82525050565b613bbf816131f8565b82525050565b600060a082019050613bda60008301886134c1565b8181036020830152613bec8187613138565b9050613bfb60408301866134c1565b613c086060830185613ba7565b613c156080830184613bb6565b969550505050505056fea2646970667358221220685951de94d522d9be708be025b3bd963f935eb39e76c2eb32e18e6a1312fe7664736f6c63430008130033",
  "immutableReferences": {},
  "source": "// SPDX-License-Identifier: MIT\r\npragma solidity ^0.8.19;\r\n\r\ncontract JadeContract {\r\n    enum JadeStatus {Sold, Available}\r\n    \r\n    string public companyName;\r\n    uint jadeCount;\r\n\r\n    // Constructor code is only run when the contract is created\r\n    constructor() {\r\n        jadeCount=0;\r\n        companyName = \"Jadee's Jade Shop\";\r\n    }\r\n\r\n    //declare the structure of the jade data\r\n   struct JadeInformation {\r\n        string id;\r\n        string name;\r\n        string origin;\r\n        string minedDate;\r\n        uint price;\r\n        JadeStatus status;\r\n    }\r\n\r\n    //declare the structure for the owner data\r\n    struct OwnershipRecord {\r\n        address payable ownerId;\r\n        string ownerName;\r\n        string transferDate;\r\n        string phone;\r\n        string email;  \r\n    } \r\n\r\n    // declare the structure for the certification record\r\n    struct CertificateRecord {\r\n        string certificationId;\r\n        string grade;\r\n        string issueDate;\r\n        string authorityName;\r\n        string phone;\r\n        string email;\r\n    }\r\n\r\n    // declare the structure of the provenance record\r\n    struct ProvenanceRecord {\r\n        string handlerName;\r\n        string handlerAddress;\r\n        string transferDate;\r\n        string phone;\r\n        string provenanceDate;\r\n        string progress;\r\n    }\r\n\r\n    //declare the structure for the jade information - \r\n    //which consists of jadeInfo, ownership, certification and ProvenanceRecord\r\n    struct Jade {\r\n        JadeInformation jadeInfo;\r\n        OwnershipRecord[] ownershipRecords;\r\n        CertificateRecord[] certificateHistory;\r\n        ProvenanceRecord[] provenanceHistory;\r\n    }\r\n    //map the jade id to the Jade structure and hold them in the mapping variable jades\r\n    mapping(uint256 => Jade) public jades;\r\n\r\n    //write the getter functions\r\n    // function to get the company name getCompanyName() \r\n    function getCompanyName() public view returns(string memory){\r\n        return companyName;\r\n    }\r\n\r\n    //Write a function getNoOfJades to obtain the jadeCount\r\n    function getNoOfJades() public view returns (uint) {\r\n        return jadeCount;\r\n    }\r\n\r\n     // Function to retrieve jade  information\r\n    function getJadeInfo(uint256 jadeId) public view returns (JadeInformation memory) {\r\n        return jades[jadeId].jadeInfo;\r\n    }\r\n\r\n     // Function to retrieve ownership records\r\n    function getOwnershipRecords(uint256 jadeId) public view returns (OwnershipRecord[] memory) {\r\n        return jades[jadeId].ownershipRecords;\r\n    }\r\n\r\n    // Function to retrieve certification records\r\n    function getCertificateRecords(uint256 jadeId) public view returns (CertificateRecord[] memory) {\r\n        return jades[jadeId].certificateHistory;\r\n    }\r\n\r\n    // Function to retrieve provenance records\r\n    function getProvenanceRecords(uint256 jadeId) public view returns (ProvenanceRecord[] memory) {\r\n        return jades[jadeId].provenanceHistory;\r\n    }\r\n\r\n    //function to register the jade\r\n    function registerJade() public returns (uint256) {\r\n        jadeCount++;    \r\n        return jadeCount;\r\n    }\r\n\r\n    //create the event\r\n    event JadeCreated(\r\n        uint256 jadeId,\r\n        string id,\r\n        string name,\r\n        string origin,\r\n        string minedDate\r\n    );\r\n\r\n    // Function to add jade  information\r\n    function addJadeInfo(\r\n        uint256 jadeId,\r\n        string memory _id,\r\n        string memory _name,\r\n        string memory _origin,\r\n        string memory _minedDate,\r\n        uint price\r\n    ) public {\r\n        jades[jadeId].jadeInfo = JadeInformation(_id, _name, _origin, _minedDate, price, JadeStatus.Available);\r\n        emit JadeCreated(jadeId, _id, _name, _origin, _minedDate);\r\n    }\r\n\r\n    //create the event\r\n    event OwnerCreated(\r\n        uint256 jadeId,\r\n        string ownerName,\r\n        string transferDate,\r\n        string phone,\r\n        string email\r\n    );\r\n\r\n    // Function to add a new ownership record\r\n    function addOwnerShipRecord (uint256 jadeId, \r\n        string memory _ownerName,\r\n        string memory _transferDate,\r\n        string memory _phone,\r\n        string memory _email ) public {\r\n            jades[jadeId].ownershipRecords.push(OwnershipRecord(payable(msg.sender), _ownerName, _transferDate, _phone, _email));\r\n           emit OwnerCreated (jadeId, _ownerName, _transferDate, _phone, _email);\r\n    }\r\n    //create the event\r\n    event CertificateRecCreated(\r\n        uint256 jadeId,\r\n        string certificationId,\r\n        string grade,\r\n        string issueDate,\r\n        string authorityName,\r\n        string phone,\r\n        string email\r\n    );\r\n\r\n    function addCertificateRecord (uint256 jadeId, \r\n        string memory _certificationId,\r\n        string memory _grade,\r\n        string memory _issueDate,\r\n        string memory _authorityName,\r\n        string memory _phone,\r\n        string memory _email) public {\r\n            jades[jadeId].certificateHistory.push(CertificateRecord(_certificationId, _grade, _issueDate, _authorityName, _phone, _email));\r\n            emit CertificateRecCreated(jadeId, _certificationId, _grade, _issueDate, _authorityName, _phone, _email);\r\n    }\r\n\r\n    //create the event\r\n    event ProvenanceRecCreated(\r\n            uint256 jadeId,\r\n            string handlerName,\r\n            string trainerName,\r\n            string transferDate,\r\n            string phone,\r\n            string provenanceDate,\r\n            string progress\r\n    );\r\n\r\n    function addProvenanceRecord (uint256 jadeId, \r\n         string memory _handlerName,\r\n        string memory _trainerName,\r\n        string memory _transferDate,\r\n        string memory _phone,\r\n        string memory _provenanceDate,\r\n        string memory _progress) public {\r\n            jades[jadeId].provenanceHistory.push(ProvenanceRecord(_handlerName, _trainerName, _transferDate, _phone,\r\n        _provenanceDate, _progress));\r\n        emit ProvenanceRecCreated(jadeId, _handlerName, _trainerName, _transferDate, _phone, _provenanceDate, _progress);\r\n    }\r\n\r\n    //create the event to purchase the Jade\r\n    event JadePurchased(\r\n        uint id,\r\n        string name,\r\n        uint price,\r\n        address payable owner,\r\n        JadeStatus status\r\n    );\r\n\r\n    //add a function to purchase jade with the jade id\r\n    function purchaseJade(uint _id) public payable {\r\n        // Fetch the product\r\n        Jade memory jadeData = jades[_id];\r\n        // Fetch the owner\r\n        uint256 curOwnerId = jadeData.ownershipRecords.length;\r\n        address payable seller = jadeData.ownershipRecords[curOwnerId-1].ownerId;\r\n        // Make sure the product has a valid id\r\n        require(jadeCount > 0 && bytes(jadeData.jadeInfo.id).length != 0, \"Jade Id cannot be empty\" );\r\n        // Require that there is enough Ether in the transaction\r\n        require(msg.value >= jadeData.jadeInfo.price);\r\n        // Require that the product has not been purchased already\r\n        require(jadeData.jadeInfo.status == JadeStatus.Available);\r\n        // Require that the buyer is not the seller\r\n        require(seller != msg.sender);\r\n        // Transfer ownership to the buyer\r\n        //jadeData.ownershipRecords[curOwnerId ++].ownerId = payable(msg.sender);\r\n        // Mark as purchased\r\n        jadeData.jadeInfo.status = JadeStatus.Sold;\r\n        // Update the jade information\r\n        jades[_id].jadeInfo = jadeData.jadeInfo;\r\n        // Pay the seller by sending them Ether\r\n        payable(seller).transfer(msg.value);\r\n        // Trigger an event\r\n        emit JadePurchased(jadeCount, jadeData.jadeInfo.name, jadeData.jadeInfo.price, payable(msg.sender), JadeStatus.Sold);\r\n    }\r\n\r\n  \r\n}\r\n",
  "sourcePath": "C:\\Users\\user\\Blockchain\\MetaJadeProjectDApp\\contracts\\JadeContract.sol",
  "compiler": {
    "name": "solc",
    "version": "0.8.19+commit.7dd6d404.Emscripten.clang"
  },
  "schemaVersion": "3.4.16",
  "updatedAt": "2025-01-27T01:58:06.660Z",
  "networkType": "ethereum",
  "devdoc": {
    "kind": "dev",
    "methods": {},
    "version": 1
  },
  "userdoc": {
    "kind": "user",
    "methods": {},
    "version": 1
  }
}